:10000000FC7F002029080000C1010000BD010000A4
:1000100000000000000000000000000000000000E0
:10002000000000000000000000000000B901000016
:100030000000000000000000B50100001D010000EC
:1000400010B5064C2378002B07D1054B002B02D0AE
:10005000044800E000BF0123237010BD5C000020B5
:1000600000000000BC120000044B10B5002B03D0B0
:100070000349044800E000BF10BDC0460000000076
:1000800060000020BC120000030010B50800110041
:1000900098478022034B12055A616422024B1A8052
:1000A00010BDC0460044004178000020F0B5194B57
:1000B0000A00997885B05C68002929D0042A1FD1EC
:1000C00000680F263027520004AB9B180B3B9D1A8B
:1000D00001003140092919D839431970013B000941
:1000E0009D42F5D10A200C4B01A90B808B1898700A
:1000F0000330D8700432E068FFF7C6FF05B0F0BDEA
:10010000022A01D10088DCE70078DAE73731E4E73A
:100110000100F0E77800002030780000214A224BEF
:10012000117A002908D11978587809188020C9B2A5
:1001300059701E498002C861117A0131C9B2117229
:100140005978F02902D85978092908D819784942EC
:1001500049B21970197858780918C9B25970117ACA
:100160005B78994203D18021104B8902D9611388B1
:10017000002B09D01388013B9BB21380002B03D1C5
:1001800080210A4B090599615389002B08D05389B6
:10019000013B9BB25381002B02D10822044B1A6011
:1001A0007047C04678000020000000200044004155
:1001B0009844004102BEFEE705BEFEE70DBEFEE725
:1001C0000EBEFEE710230249CA681A42FCD07047EF
:1001D00000080040024A53785BB2002BFBDB7047FB
:1001E000000C0040074AFF3053699B0B9B0353618F
:1001F000022303728279823B13438371037A9B0744
:10020000FCD570471C020020F8B51A4F06003B7B56
:1002100008001400002B12D1174B184A18491A6411
:100220005A6C920B92035A645A6C0A405A64A22286
:1002300040235200B15C0B43B35401233B73482568
:10024000FF35735DDB07DB0F12D00B4A536C9B0449
:100250009B0C9C4202D9546CA404A40C22000749B4
:1002600000F0BCFE0123735500233B732000F8BD52
:100270001C00FBE7780000201C020020DC010020AD
:10028000FF3F00F013B56B46DC1D044B012221003B
:100290001869FFF7B9FF207816BDC0467800002026
:1002A000F7B5009001201C4D1C005B011600019366
:1002B000EA18536910325B005B0F03339840B04279
:1002C00021D8802350681B06034353606301ED1857
:1002D00029616B69B1049B0B890C9B030B436B6118
:1002E0006B690E4908340B406B61009B64011C195B
:1002F0000223E3716279823B13436371E3799B07C5
:10030000FCD53000FEBD064BA701FF1832003800B7
:1003100000F064FE3900D9E71C020020FF3F00F026
:100320001C01002010B50C000A0001000348012345
:100330000069FFF7B5FF200010BDC046780000201F
:10034000012307B5019004481A0001A90069FFF7CD
:10035000A7FF01200EBDC0467800002070B5050043
:10036000C0B0080016000C0000F041FE6B464000D3
:10037000023018706A46032376085370023B5A1EF7
:10038000A15C5A00002901D09E4206DC0023694688
:100390002800FFF785FF40B070BD684601338152E9
:1003A000EDE7F7B5056808222900AB8B060013407E
:1003B000FF31002B27D080234020C024AA8309329C
:1003C000AB724A7088714B71B14BB24D5A68A4053B
:1003D0002A4022435A605A692A401443AE4A5C615B
:1003E0001A60AE4AAE4C1A615A68144080229202DA
:1003F00022435A605A68920B92035A600023487154
:1004000033713079FEBD10200A7A0242F9D0A24A37
:10041000A44C177808722777577867779778E7831F
:10042000E78BBC466046D7783F020743E7831779DE
:1004300027845779208C3F02074327849779678464
:10044000D279678C12023A43402762844F71627FEF
:10045000207F120202439448824200D1F0E026DC61
:100460008020400082421CD00BDC812A04D0822AEA
:1004700000D1BDE0802A14D12100A38424310222BE
:100480004DE081235B009A4200D123E100DAF5E0E0
:10049000FF33FF339A4200D1CDE0844B9A4200D122
:1004A000ECE02023FF35AA791343AB71A9E7902133
:1004B00009018A426BD017DCD021C9008A4222D0C0
:1004C000882109018A4200D18FE0A023DB009A42F3
:1004D000E7D12800FFF786FE8023E28B5B421343BF
:1004E0003268DBB293728CE7714B9A4200D1C5E05F
:1004F000D7DD704B9A4200D147E16F4B9A42D0D181
:10050000E38B7371BAE0E38B1B0A012B0BD1122230
:10051000638C934201D8628C92B200236749280011
:10052000FFF7BEFE6DE7E38B1B0A022B09D14322C6
:10053000638C934201D8628C92B2614900230431EA
:10054000EDE7E38B1B0A032BABD1E38BDBB2012B73
:1005500016D0002B05D0022BA3D1628C5949D2B200
:1005600011E056490422123101A800F037FD04229F
:10057000638C934201D8628C92B2002301A9CEE72A
:10058000628C5149D2B22800FFF7E8FE39E7E38BCD
:1005900028003371FFF726FEA0230322C0215B0051
:1005A000EA543B4B3B485A6C890502400A435A6463
:1005B0004622FF32AF54454A30241A64902252003A
:1005C000AC545A6B0240114392225963802152006D
:1005D000A9543F4A1A63B0225200AF545A6F1040D8
:1005E0005867B2235B00E9540BE7311D012296E7FF
:1005F00050220F20A384238C1340E21DD377238C39
:1006000003402384238C032B15D8D37F002B0BD0DE
:10061000238C08335B01EB189B799B062100DB0FD1
:10062000A384243100232AE7238C08335B01EB18D1
:100630009B79DB06F2E720238A7913438B71E0E68E
:1006400080220F21238C1340E21DD377238C0B4093
:100650002384E38B002B00D023E7238C002B00D1D5
:100660001FE7238C032B00D91BE7D37F002B09D076
:100670002022238C08335B01EB185A712800FFF706
:10068000B1FDBEE6238C102208335B01EB18F4E7C2
:100690001C020020FFFFFF8F9C0100201C01002096
:1006A000FF3F00F07800002002030000010300007B
:1006B00021200000A12100002122000014100000D0
:1006C00000000020861200007A120000DC010020E9
:1006D0005C0100208022238C1340E21DD3770F227F
:1006E000238C13402384E38B002B00D0D9E6238C8A
:1006F000002B00D1D5E6238C032B00D9D1E6E31DD6
:10070000DB7F002B20D0238C08335B01EB189B7917
:100710009B06B3D5238C113208335B01EB181A7199
:10072000238C08335B01EB18DB795B06A6D5238CA1
:10073000203208335B01EB18DA71238C3E3A083320
:100740005B01EB181A7199E7238C08335B01EB18F6
:100750009B79DB0692D51022238C08335B01EB18C2
:100760001A71238C08335B01EB18DB799B0600D4EC
:1007700084E7238C921808335B01EB18DA71238C21
:100780001F3A08335B01EB18DCE70822638C9342C5
:1007900001D8628C92B2024900234831BFE6C046BC
:1007A00000000020F8B50B4F0600380010300D0097
:1007B000FFF7F7FD2C00002808D1050008E0220013
:1007C00031003869FFF720FD241A3618002CF6D1C5
:1007D0002800F8BD7800002070B5084C0500200006
:1007E00010300E00FFF7DDFD03000020834204D02F
:1007F000320029002069FFF707FD70BD7800002056
:1008000010B5084C20001030FFF7CBFD030000208E
:10081000834205D048232269FF33D05CC007C00F54
:1008200010BDC046780000200D4A0E4870B58242C7
:1008300006D10D4A0D4B002193420DD100F01AF85C
:100840000B4C00239442F4D0D1188842F1D9E558DA
:1008500004330D60F8E702C39342FCD3EEE7C046D1
:10086000000000205C0000209C0200205C000020B2
:10087000C0120000F0B50F4A8FB0136800AF01330B
:100880002AD00D4B0D49D0B29962002824D10C4BCF
:100890000C491B78DB07DB0F18D00860136883F363
:1008A0000888FF2311009943074B99605368184744
:1008B00012E0C04600200000780000200420000064
:1008C00038040040FC7F002000ED00E00C68DB48AD
:1008D000844200D09AE10B601E210226D84AD94CEE
:1008E00053688B4333435360D74BA382A38A33436C
:1008F000A382FA60E3683342FCD00123D34DAB609E
:10090000FFF768FCD24B6B60FFF764FC8223DB01CE
:100910006B80FFF75FFC8022A38C9343A384FFF7D7
:1009200051FCCC4BE362FFF74DFCA28CCA4B134346
:10093000A384FFF747FCA38C1E438023A6841900E1
:10094000403BE2680A42FCD0E2681A42F9D0002437
:10095000FFF738FCAC60FFF73DFCC04BC04E6B604E
:10096000FFF738FCC022BF4BBF487360036A120612
:100970001B021B0A134303620723B460336062B691
:100980000121BA4A1933D0690F340343B848D361FF
:1009900003780B430370B74B1878A043187018788E
:1009A00084460620624610431870B34802780A4312
:1009B00002701A78144060221C70187802431A7072
:1009C000AE4B6B80A84BBB60A64B3B606B785BB2B9
:1009D000002BFBDB0123AA4D2A7813432B70AB7845
:1009E000DB07FCD41F21A74A13685B0B0B408B422B
:1009F00000D10523288DA44C0B409B0120400343CC
:100A00002B8513689B0C0B401F2B00D1023B1F2032
:100A1000298D034081430B432B8513680722DB0D8F
:100A200013407A60934200D1032379682A8D0B40EA
:100A300096491B030A4013437F222B852B78944849
:100A400013402B7004232A78002113430C222B70AF
:100A500068622B8993432B812B890B3A93432B811B
:100A60007F3200F0B3FA00228A4C8B4B2561A361E0
:100A70000223A282297889480B4380212B70884B5E
:100A80008902996008210160864825000160802163
:100A9000090599609961C0213B6809067360BB68CC
:100AA0002C351B6A1B021B0A0B43B9680B627B685F
:100AB000B260336001262000A369103098470028F7
:100AC00000D02E702B78002BF5D0774B10221833E6
:100AD00063600823BA18D1180A00734B343361CB12
:100AE00061C261CB61C221CB21C2FB68FA689B68FD
:100AF0005B035B0F9B005B582363926892B2534386
:100B000063630023A36323007A223C331A70636873
:100B100040211B6965489847002804D00822644B8F
:100B20001A6064236381634B604A18605A60002333
:100B3000604A93605F4DAB682A689342E7D26B6866
:100B40001B78FF2B5AD0232B00D0F5E1A378002B84
:100B500005D0636802225849D868FFF795FA230048
:100B60003C331B78532B5AD12B68AE68B3421BD948
:100B70006968EA6801310136B9606960AE609B1B43
:100B800093424AD22B612B69B9681A00A06BFB60B3
:100B900000F024FAFA68FB689446F618BB68AE6069
:100BA00063446B603B7B2B75424B424A9B68D16828
:100BB000013B93605368FB60013B5360137D8B42A4
:100BC0000BD2C91A6368A06B9B699847002804D0B0
:100BD0000822374B1A6064236381C04623007A22BF
:100BE0003C331A700022334BDA60A378934205D06D
:100BF000636801323149D868FFF746FA2D4B9A688D
:100C000001329A605A6801325A6093E72C4B0860AF
:100C1000013B002BFCD10B6040E62A61B3E7522B6D
:100C200006D16368EA68A16B5869FFF72DFAD5E72A
:100C30004F2B47D1EB68A26B1370CFE73581730759
:100C400000400041000800400C060000000C00407D
:100C500001050100B805FF7D040A0000000703003C
:100C600010E000E0E703000000ED00E000040040B9
:100C7000584400413C4400415944004106400000B2
:100C800000500041246080003FF8FFFFFF8FFFFF0E
:100C90001C02002078000020A303000088440041CB
:100CA000004400419844004114100000B5000020A9
:100CB00094440041F8000020B7120000BA1200006E
:100CC00048E80100482B03D1EB68A26B138085E74D
:100CD000572B03D1A36BEA681A607FE76F2B04D10F
:100CE0000121A06BFFF7E2F978E7682B06D1280015
:100CF000A36B0C301B880221EB60F3E7772B06D146
:100D00002800A36B0C301B680421EB60EAE7472B3B
:100D100019D19C4BDB6872B6EFF3088299498A615E
:100D20001A6882F308885B6818478B6983F3088820
:100D300062B6944B1B7F002B00D14FE763680620FF
:100D40001B6898474AE7542B08D1533BA3700222F3
:100D500063688D49D868FFF797F93FE74E2B0BD1B1
:100D6000A378002B05D1636802228749D868FFF772
:100D70008BF90023A37031E7562B5FD16368012202
:100D80008249D868FFF780F96368814903225431AA
:100D9000D868FFF779F97F4D636829000122D86888
:100DA000FFF772F963687A490D225831D868FFF766
:100DB0006BF9636829000122D868FFF765F9002301
:100DC00001201A0084466F4D7349AB6069605E1C58
:100DD000FE60714E7148F65CC018002E28D1002AC2
:100DE00000D0AB60674B674A586063689268D86808
:100DF000FFF74AF9636801226649D868FFF744F9AA
:100E0000002301205F4A844693601A0064496548C4
:100E10008E5C8018002E0ED1002B00D0AA60594B9A
:100E2000584A586063689268D868FFF72DF98EE7D2
:100E3000FB686246CBE701326346E8E7582B13D1E3
:100E4000226BEB68606B5849584D9200834203D384
:100E50006368032256497DE75E08CE610D800E7DF2
:100E6000F607FCD59B18F1E7592B31D1EA68A06B46
:100E7000002A04D12862636803224E496AE72B6A7C
:100E800080259C46484B92085968A9435960216BBC
:100E90008908B960002AEED047491980197DC90731
:100EA000FCD566460021F860BD68F868B446A942E2
:100EB00001D0914206D1414D1D801D7DED07FCD52D
:100EC000521AE7E7FD6801CE013101C5FD60EBE78D
:100ED0005A2B00D082E6E9680025A36B38485918E0
:100EE0008B421FD163680122D8683649FFF7CCF8DE
:100EF00007230F222A40D0B201002D093031092AE0
:100F000000DD07311022BA18D154013BF1D2102173
:100F1000636808227918D868FFF7B6F86368032277
:100F2000294917E71E782A0A72405200125A2D02E8
:100F30005540ADB20133D3E71A00303AD1B2092996
:100F400004D8EB681B011343EB6057E61A00413AE3
:100F5000052A03D8EA68373B1201F4E71A00613A20
:100F6000052A03D8EA68573B1201ECE700222C2B34
:100F700003D1EB68A363EA6040E621003C310B70CB
:100F8000F9E7C046F8000020B712000093120000F5
:100F90001410000095120000971200009812000033
:100FA000A3120000A41200000040004102A5FFFFB0
:100FB000AC120000B012000044A5FFFF04A5FFFF23
:100FC0007A100000B4120000B612000003001218DC
:100FD000934200D1704719700133F9E7002310B52F
:100FE0009A4200D110BDCC5CC4540133F8E7002311
:100FF000C25C0133002AFBD1581E7047F8B5C046C9
:10100000F8BC08BC9E467047F8B5C046F8BC08BCA2
:101010009E467047120100020200004041234D002D
:101020000002010200010403090400004103000062
:10103000850200000108000025030000D907000018
:1010400025030000A50700000800000010000000B4
:1010500020000000400000008000000000010000AF
:101060000002000000040000322E30005B41726478
:1010700075696E6F3A58595A5D0000002110422080
:1010800063308440A550C660E770088129914AA169
:101090006BB18CC1ADD1CEE1EFF1311210027332E0
:1010A0005222B5529442F772D662399318837BB3B9
:1010B0005AA3BDD39CC3FFF3DEE362244334200470
:1010C0000114E664C774A44485546AA54BB5288509
:1010D0000995EEE5CFF5ACC58DD5533672261116C0
:1010E0003006D776F6669556B4465BB77AA7199759
:1010F0003887DFF7FEE79DD7BCC7C448E558866848
:10110000A7784008611802282338CCC9EDD98EE9A8
:10111000AFF9488969990AA92BB9F55AD44AB77A1F
:10112000966A711A500A333A122AFDDBDCCBBFFBF8
:101130009EEB799B588B3BBB1AABA66C877CE44C2F
:10114000C55C222C033C600C411CAEED8FFDECCD48
:10115000CDDD2AAD0BBD688D499D977EB66ED55EFF
:10116000F44E133E322E511E700E9FFFBEEFDDDF98
:10117000FCCF1BBF3AAF599F788F8891A981CAB124
:10118000EBA10CD12DC14EF16FE18010A100C23056
:10119000E3200450254046706760B9839893FBA311
:1011A000DAB33DC31CD37FE35EF3B1029012F322A6
:1011B000D2323542145277625672EAB5CBA5A89561
:1011C00089856EF54FE52CD50DC5E234C324A014F6
:1011D00081046674476424540544DBA7FAB79987F1
:1011E000B8975FE77EF71DC73CD7D326F236910646
:1011F000B01657667676154634564CD96DC90EF939
:101200002FE9C899E9898AB9ABA944586548067895
:101210002768C018E1088238A3287DCB5CDB3FEB50
:101220001EFBF98BD89BBBAB9ABB754A545A376AE5
:10123000167AF10AD01AB32A923A2EFD0FED6CDD20
:101240004DCDAABD8BADE89DC98D267C076C645C35
:10125000454CA23C832CE01CC10C1FEF3EFF5DCF30
:101260007CDF9BAFBABFD98FF89F176E367E554E85
:10127000745E932EB23ED10EF01E41726475696E9B
:101280006F204C4C430041726475696E6F205A6543
:10129000726F00760020004D6179203132203230AB
:1012A00032300031343A30363A353700580A0D00C2
:1012B000590A0D005A00230A0D003E0000000000EC
:1012C00001140000090243000201008032090400F9
:1012D00000010202000005240010010424020005A0
:1012E000240600010524010001070583030800FF0F
:1012F00009040100020A0000000705810240000005
:10130000070502024000000000C2010000000800C2
:0C13100001000000690000004100000026
:0400000300000829C8
:00000001FF
